{
	"Wallet/Wallet.sol": {
		"Wallet": {
			"abi": [
				{
					"inputs": [],
					"stateMutability": "payable",
					"type": "constructor"
				},
				{
					"anonymous": false,
					"inputs": [
						{
							"indexed": false,
							"internalType": "address",
							"name": "sender",
							"type": "address"
						},
						{
							"indexed": false,
							"internalType": "uint256",
							"name": "amt",
							"type": "uint256"
						},
						{
							"indexed": false,
							"internalType": "uint256",
							"name": "balance",
							"type": "uint256"
						}
					],
					"name": "Deposit",
					"type": "event"
				},
				{
					"anonymous": false,
					"inputs": [
						{
							"indexed": false,
							"internalType": "address",
							"name": "to",
							"type": "address"
						},
						{
							"indexed": false,
							"internalType": "uint256",
							"name": "amt",
							"type": "uint256"
						},
						{
							"indexed": false,
							"internalType": "uint256",
							"name": "balance",
							"type": "uint256"
						}
					],
					"name": "Transfer",
					"type": "event"
				},
				{
					"anonymous": false,
					"inputs": [
						{
							"indexed": false,
							"internalType": "uint256",
							"name": "amt",
							"type": "uint256"
						},
						{
							"indexed": false,
							"internalType": "uint256",
							"name": "balance",
							"type": "uint256"
						}
					],
					"name": "Withdraw",
					"type": "event"
				},
				{
					"inputs": [],
					"name": "deposit",
					"outputs": [],
					"stateMutability": "payable",
					"type": "function"
				},
				{
					"inputs": [],
					"name": "getBalance",
					"outputs": [
						{
							"internalType": "uint256",
							"name": "",
							"type": "uint256"
						}
					],
					"stateMutability": "view",
					"type": "function"
				},
				{
					"inputs": [
						{
							"internalType": "address payable",
							"name": "_to",
							"type": "address"
						},
						{
							"internalType": "uint256",
							"name": "_amt",
							"type": "uint256"
						}
					],
					"name": "transferfunc",
					"outputs": [],
					"stateMutability": "nonpayable",
					"type": "function"
				},
				{
					"inputs": [
						{
							"internalType": "uint256",
							"name": "_amt",
							"type": "uint256"
						}
					],
					"name": "withdraw",
					"outputs": [],
					"stateMutability": "nonpayable",
					"type": "function"
				}
			],
			"devdoc": {
				"kind": "dev",
				"methods": {},
				"version": 1
			},
			"evm": {
				"assembly": "    /* \"Wallet/Wallet.sol\":60:978  contract Wallet{... */\n  mstore(0x40, 0x80)\n    /* \"Wallet/Wallet.sol\":159:169  msg.sender */\n  caller\n    /* \"Wallet/Wallet.sol\":145:150  owner */\n  0x00\n  dup1\n    /* \"Wallet/Wallet.sol\":145:170  owner=payable(msg.sender) */\n  0x0100\n  exp\n  dup2\n  sload\n  dup2\n  0xffffffffffffffffffffffffffffffffffffffff\n  mul\n  not\n  and\n  swap1\n  dup4\n  0xffffffffffffffffffffffffffffffffffffffff\n  and\n  mul\n  or\n  swap1\n  sstore\n  pop\n    /* \"Wallet/Wallet.sol\":60:978  contract Wallet{... */\n  dataSize(sub_0)\n  dup1\n  dataOffset(sub_0)\n  0x00\n  codecopy\n  0x00\n  return\nstop\n\nsub_0: assembly {\n        /* \"Wallet/Wallet.sol\":60:978  contract Wallet{... */\n      mstore(0x40, 0x80)\n      jumpi(tag_1, lt(calldatasize, 0x04))\n      shr(0xe0, calldataload(0x00))\n      dup1\n      0x12065fe0\n      eq\n      tag_2\n      jumpi\n      dup1\n      0x232f4034\n      eq\n      tag_3\n      jumpi\n      dup1\n      0x2e1a7d4d\n      eq\n      tag_4\n      jumpi\n      dup1\n      0xd0e30db0\n      eq\n      tag_5\n      jumpi\n    tag_1:\n      0x00\n      dup1\n      revert\n        /* \"Wallet/Wallet.sol\":881:975  function getBalance() public view returns(uint){... */\n    tag_2:\n      callvalue\n      dup1\n      iszero\n      tag_6\n      jumpi\n      0x00\n      dup1\n      revert\n    tag_6:\n      pop\n      tag_7\n      tag_8\n      jump\t// in\n    tag_7:\n      mload(0x40)\n      tag_9\n      swap2\n      swap1\n      tag_10\n      jump\t// in\n    tag_9:\n      mload(0x40)\n      dup1\n      swap2\n      sub\n      swap1\n      return\n        /* \"Wallet/Wallet.sol\":710:873  function transferfunc(address payable _to, uint _amt) public onlyOwner{... */\n    tag_3:\n      callvalue\n      dup1\n      iszero\n      tag_11\n      jumpi\n      0x00\n      dup1\n      revert\n    tag_11:\n      pop\n      tag_12\n      0x04\n      dup1\n      calldatasize\n      sub\n      dup2\n      add\n      swap1\n      tag_13\n      swap2\n      swap1\n      tag_14\n      jump\t// in\n    tag_13:\n      tag_15\n      jump\t// in\n    tag_12:\n      stop\n        /* \"Wallet/Wallet.sol\":566:702  function withdraw(uint _amt) public onlyOwner{... */\n    tag_4:\n      callvalue\n      dup1\n      iszero\n      tag_16\n      jumpi\n      0x00\n      dup1\n      revert\n    tag_16:\n      pop\n      tag_17\n      0x04\n      dup1\n      calldatasize\n      sub\n      dup2\n      add\n      swap1\n      tag_18\n      swap2\n      swap1\n      tag_19\n      jump\t// in\n    tag_18:\n      tag_20\n      jump\t// in\n    tag_17:\n      stop\n        /* \"Wallet/Wallet.sol\":350:461  function deposit() public payable {... */\n    tag_5:\n      tag_21\n      tag_22\n      jump\t// in\n    tag_21:\n      stop\n        /* \"Wallet/Wallet.sol\":881:975  function getBalance() public view returns(uint){... */\n    tag_8:\n        /* \"Wallet/Wallet.sol\":923:927  uint */\n      0x00\n        /* \"Wallet/Wallet.sol\":946:967  address(this).balance */\n      selfbalance\n        /* \"Wallet/Wallet.sol\":939:967  return address(this).balance */\n      swap1\n      pop\n        /* \"Wallet/Wallet.sol\":881:975  function getBalance() public view returns(uint){... */\n      swap1\n      jump\t// out\n        /* \"Wallet/Wallet.sol\":710:873  function transferfunc(address payable _to, uint _amt) public onlyOwner{... */\n    tag_15:\n        /* \"Wallet/Wallet.sol\":520:525  owner */\n      0x00\n      dup1\n      sload\n      swap1\n      0x0100\n      exp\n      swap1\n      div\n      0xffffffffffffffffffffffffffffffffffffffff\n      and\n        /* \"Wallet/Wallet.sol\":508:525  msg.sender==owner */\n      0xffffffffffffffffffffffffffffffffffffffff\n      and\n        /* \"Wallet/Wallet.sol\":508:518  msg.sender */\n      caller\n        /* \"Wallet/Wallet.sol\":508:525  msg.sender==owner */\n      0xffffffffffffffffffffffffffffffffffffffff\n      and\n      eq\n        /* \"Wallet/Wallet.sol\":500:538  require(msg.sender==owner,\"not owner\") */\n      tag_25\n      jumpi\n      mload(0x40)\n      0x08c379a000000000000000000000000000000000000000000000000000000000\n      dup2\n      mstore\n      0x04\n      add\n      tag_26\n      swap1\n      tag_27\n      jump\t// in\n    tag_26:\n      mload(0x40)\n      dup1\n      swap2\n      sub\n      swap1\n      revert\n    tag_25:\n        /* \"Wallet/Wallet.sol\":791:794  _to */\n      dup2\n        /* \"Wallet/Wallet.sol\":791:803  _to.transfer */\n      0xffffffffffffffffffffffffffffffffffffffff\n      and\n        /* \"Wallet/Wallet.sol\":791:809  _to.transfer(_amt) */\n      0x08fc\n        /* \"Wallet/Wallet.sol\":804:808  _amt */\n      dup3\n        /* \"Wallet/Wallet.sol\":791:809  _to.transfer(_amt) */\n      swap1\n      dup2\n      iszero\n      mul\n      swap1\n      mload(0x40)\n      0x00\n      mload(0x40)\n      dup1\n      dup4\n      sub\n      dup2\n      dup6\n      dup9\n      dup9\n      call\n      swap4\n      pop\n      pop\n      pop\n      pop\n      iszero\n      dup1\n      iszero\n      tag_30\n      jumpi\n      returndatasize\n      0x00\n      dup1\n      returndatacopy\n      revert(0x00, returndatasize)\n    tag_30:\n      pop\n        /* \"Wallet/Wallet.sol\":825:865  Transfer(_to,_amt,address(this).balance) */\n      0x7fa9aafeb8bb803d77de5d84bc2f2edbd842ca91b20cd5020aa21dfe26ab0be9\n        /* \"Wallet/Wallet.sol\":834:837  _to */\n      dup3\n        /* \"Wallet/Wallet.sol\":838:842  _amt */\n      dup3\n        /* \"Wallet/Wallet.sol\":843:864  address(this).balance */\n      selfbalance\n        /* \"Wallet/Wallet.sol\":825:865  Transfer(_to,_amt,address(this).balance) */\n      mload(0x40)\n      tag_31\n      swap4\n      swap3\n      swap2\n      swap1\n      tag_32\n      jump\t// in\n    tag_31:\n      mload(0x40)\n      dup1\n      swap2\n      sub\n      swap1\n      log1\n        /* \"Wallet/Wallet.sol\":710:873  function transferfunc(address payable _to, uint _amt) public onlyOwner{... */\n      pop\n      pop\n      jump\t// out\n        /* \"Wallet/Wallet.sol\":566:702  function withdraw(uint _amt) public onlyOwner{... */\n    tag_20:\n        /* \"Wallet/Wallet.sol\":520:525  owner */\n      0x00\n      dup1\n      sload\n      swap1\n      0x0100\n      exp\n      swap1\n      div\n      0xffffffffffffffffffffffffffffffffffffffff\n      and\n        /* \"Wallet/Wallet.sol\":508:525  msg.sender==owner */\n      0xffffffffffffffffffffffffffffffffffffffff\n      and\n        /* \"Wallet/Wallet.sol\":508:518  msg.sender */\n      caller\n        /* \"Wallet/Wallet.sol\":508:525  msg.sender==owner */\n      0xffffffffffffffffffffffffffffffffffffffff\n      and\n      eq\n        /* \"Wallet/Wallet.sol\":500:538  require(msg.sender==owner,\"not owner\") */\n      tag_34\n      jumpi\n      mload(0x40)\n      0x08c379a000000000000000000000000000000000000000000000000000000000\n      dup2\n      mstore\n      0x04\n      add\n      tag_35\n      swap1\n      tag_27\n      jump\t// in\n    tag_35:\n      mload(0x40)\n      dup1\n      swap2\n      sub\n      swap1\n      revert\n    tag_34:\n        /* \"Wallet/Wallet.sol\":622:627  owner */\n      0x00\n      dup1\n      sload\n      swap1\n      0x0100\n      exp\n      swap1\n      div\n      0xffffffffffffffffffffffffffffffffffffffff\n      and\n        /* \"Wallet/Wallet.sol\":622:636  owner.transfer */\n      0xffffffffffffffffffffffffffffffffffffffff\n      and\n        /* \"Wallet/Wallet.sol\":622:642  owner.transfer(_amt) */\n      0x08fc\n        /* \"Wallet/Wallet.sol\":637:641  _amt */\n      dup3\n        /* \"Wallet/Wallet.sol\":622:642  owner.transfer(_amt) */\n      swap1\n      dup2\n      iszero\n      mul\n      swap1\n      mload(0x40)\n      0x00\n      mload(0x40)\n      dup1\n      dup4\n      sub\n      dup2\n      dup6\n      dup9\n      dup9\n      call\n      swap4\n      pop\n      pop\n      pop\n      pop\n      iszero\n      dup1\n      iszero\n      tag_38\n      jumpi\n      returndatasize\n      0x00\n      dup1\n      returndatacopy\n      revert(0x00, returndatasize)\n    tag_38:\n      pop\n        /* \"Wallet/Wallet.sol\":658:694  Withdraw(_amt,address(this).balance) */\n      0x56ca301a9219608c91e7bcee90e083c19671d2cdcc96752c7af291cee5f9c8c8\n        /* \"Wallet/Wallet.sol\":667:671  _amt */\n      dup2\n        /* \"Wallet/Wallet.sol\":672:693  address(this).balance */\n      selfbalance\n        /* \"Wallet/Wallet.sol\":658:694  Withdraw(_amt,address(this).balance) */\n      mload(0x40)\n      tag_39\n      swap3\n      swap2\n      swap1\n      tag_40\n      jump\t// in\n    tag_39:\n      mload(0x40)\n      dup1\n      swap2\n      sub\n      swap1\n      log1\n        /* \"Wallet/Wallet.sol\":566:702  function withdraw(uint _amt) public onlyOwner{... */\n      pop\n      jump\t// out\n        /* \"Wallet/Wallet.sol\":350:461  function deposit() public payable {... */\n    tag_22:\n        /* \"Wallet/Wallet.sol\":400:453  Deposit(msg.sender, msg.value, address(this).balance) */\n      0x90890809c654f11d6e72a28fa60149770a0d11ec6c92319d6ceb2bb0a4ea1a15\n        /* \"Wallet/Wallet.sol\":408:418  msg.sender */\n      caller\n        /* \"Wallet/Wallet.sol\":420:429  msg.value */\n      callvalue\n        /* \"Wallet/Wallet.sol\":431:452  address(this).balance */\n      selfbalance\n        /* \"Wallet/Wallet.sol\":400:453  Deposit(msg.sender, msg.value, address(this).balance) */\n      mload(0x40)\n      tag_42\n      swap4\n      swap3\n      swap2\n      swap1\n      tag_43\n      jump\t// in\n    tag_42:\n      mload(0x40)\n      dup1\n      swap2\n      sub\n      swap1\n      log1\n        /* \"Wallet/Wallet.sol\":350:461  function deposit() public payable {... */\n      jump\t// out\n        /* \"#utility.yul\":7:84   */\n    tag_44:\n        /* \"#utility.yul\":44:51   */\n      0x00\n        /* \"#utility.yul\":73:78   */\n      dup2\n        /* \"#utility.yul\":62:78   */\n      swap1\n      pop\n        /* \"#utility.yul\":7:84   */\n      swap2\n      swap1\n      pop\n      jump\t// out\n        /* \"#utility.yul\":90:208   */\n    tag_45:\n        /* \"#utility.yul\":177:201   */\n      tag_68\n        /* \"#utility.yul\":195:200   */\n      dup2\n        /* \"#utility.yul\":177:201   */\n      tag_44\n      jump\t// in\n    tag_68:\n        /* \"#utility.yul\":172:175   */\n      dup3\n        /* \"#utility.yul\":165:202   */\n      mstore\n        /* \"#utility.yul\":90:208   */\n      pop\n      pop\n      jump\t// out\n        /* \"#utility.yul\":214:436   */\n    tag_10:\n        /* \"#utility.yul\":307:311   */\n      0x00\n        /* \"#utility.yul\":345:347   */\n      0x20\n        /* \"#utility.yul\":334:343   */\n      dup3\n        /* \"#utility.yul\":330:348   */\n      add\n        /* \"#utility.yul\":322:348   */\n      swap1\n      pop\n        /* \"#utility.yul\":358:429   */\n      tag_70\n        /* \"#utility.yul\":426:427   */\n      0x00\n        /* \"#utility.yul\":415:424   */\n      dup4\n        /* \"#utility.yul\":411:428   */\n      add\n        /* \"#utility.yul\":402:408   */\n      dup5\n        /* \"#utility.yul\":358:429   */\n      tag_45\n      jump\t// in\n    tag_70:\n        /* \"#utility.yul\":214:436   */\n      swap3\n      swap2\n      pop\n      pop\n      jump\t// out\n        /* \"#utility.yul\":523:640   */\n    tag_47:\n        /* \"#utility.yul\":632:633   */\n      0x00\n        /* \"#utility.yul\":629:630   */\n      dup1\n        /* \"#utility.yul\":622:634   */\n      revert\n        /* \"#utility.yul\":769:895   */\n    tag_49:\n        /* \"#utility.yul\":806:813   */\n      0x00\n        /* \"#utility.yul\":846:888   */\n      0xffffffffffffffffffffffffffffffffffffffff\n        /* \"#utility.yul\":839:844   */\n      dup3\n        /* \"#utility.yul\":835:889   */\n      and\n        /* \"#utility.yul\":824:889   */\n      swap1\n      pop\n        /* \"#utility.yul\":769:895   */\n      swap2\n      swap1\n      pop\n      jump\t// out\n        /* \"#utility.yul\":901:1005   */\n    tag_50:\n        /* \"#utility.yul\":946:953   */\n      0x00\n        /* \"#utility.yul\":975:999   */\n      tag_76\n        /* \"#utility.yul\":993:998   */\n      dup3\n        /* \"#utility.yul\":975:999   */\n      tag_49\n      jump\t// in\n    tag_76:\n        /* \"#utility.yul\":964:999   */\n      swap1\n      pop\n        /* \"#utility.yul\":901:1005   */\n      swap2\n      swap1\n      pop\n      jump\t// out\n        /* \"#utility.yul\":1011:1149   */\n    tag_51:\n        /* \"#utility.yul\":1092:1124   */\n      tag_78\n        /* \"#utility.yul\":1118:1123   */\n      dup2\n        /* \"#utility.yul\":1092:1124   */\n      tag_50\n      jump\t// in\n    tag_78:\n        /* \"#utility.yul\":1085:1090   */\n      dup2\n        /* \"#utility.yul\":1082:1125   */\n      eq\n        /* \"#utility.yul\":1072:1143   */\n      tag_79\n      jumpi\n        /* \"#utility.yul\":1139:1140   */\n      0x00\n        /* \"#utility.yul\":1136:1137   */\n      dup1\n        /* \"#utility.yul\":1129:1141   */\n      revert\n        /* \"#utility.yul\":1072:1143   */\n    tag_79:\n        /* \"#utility.yul\":1011:1149   */\n      pop\n      jump\t// out\n        /* \"#utility.yul\":1155:1310   */\n    tag_52:\n        /* \"#utility.yul\":1209:1214   */\n      0x00\n        /* \"#utility.yul\":1247:1253   */\n      dup2\n        /* \"#utility.yul\":1234:1254   */\n      calldataload\n        /* \"#utility.yul\":1225:1254   */\n      swap1\n      pop\n        /* \"#utility.yul\":1263:1304   */\n      tag_81\n        /* \"#utility.yul\":1298:1303   */\n      dup2\n        /* \"#utility.yul\":1263:1304   */\n      tag_51\n      jump\t// in\n    tag_81:\n        /* \"#utility.yul\":1155:1310   */\n      swap3\n      swap2\n      pop\n      pop\n      jump\t// out\n        /* \"#utility.yul\":1316:1438   */\n    tag_53:\n        /* \"#utility.yul\":1389:1413   */\n      tag_83\n        /* \"#utility.yul\":1407:1412   */\n      dup2\n        /* \"#utility.yul\":1389:1413   */\n      tag_44\n      jump\t// in\n    tag_83:\n        /* \"#utility.yul\":1382:1387   */\n      dup2\n        /* \"#utility.yul\":1379:1414   */\n      eq\n        /* \"#utility.yul\":1369:1432   */\n      tag_84\n      jumpi\n        /* \"#utility.yul\":1428:1429   */\n      0x00\n        /* \"#utility.yul\":1425:1426   */\n      dup1\n        /* \"#utility.yul\":1418:1430   */\n      revert\n        /* \"#utility.yul\":1369:1432   */\n    tag_84:\n        /* \"#utility.yul\":1316:1438   */\n      pop\n      jump\t// out\n        /* \"#utility.yul\":1444:1583   */\n    tag_54:\n        /* \"#utility.yul\":1490:1495   */\n      0x00\n        /* \"#utility.yul\":1528:1534   */\n      dup2\n        /* \"#utility.yul\":1515:1535   */\n      calldataload\n        /* \"#utility.yul\":1506:1535   */\n      swap1\n      pop\n        /* \"#utility.yul\":1544:1577   */\n      tag_86\n        /* \"#utility.yul\":1571:1576   */\n      dup2\n        /* \"#utility.yul\":1544:1577   */\n      tag_53\n      jump\t// in\n    tag_86:\n        /* \"#utility.yul\":1444:1583   */\n      swap3\n      swap2\n      pop\n      pop\n      jump\t// out\n        /* \"#utility.yul\":1589:2079   */\n    tag_14:\n        /* \"#utility.yul\":1665:1671   */\n      0x00\n        /* \"#utility.yul\":1673:1679   */\n      dup1\n        /* \"#utility.yul\":1722:1724   */\n      0x40\n        /* \"#utility.yul\":1710:1719   */\n      dup4\n        /* \"#utility.yul\":1701:1708   */\n      dup6\n        /* \"#utility.yul\":1697:1720   */\n      sub\n        /* \"#utility.yul\":1693:1725   */\n      slt\n        /* \"#utility.yul\":1690:1809   */\n      iszero\n      tag_88\n      jumpi\n        /* \"#utility.yul\":1728:1807   */\n      tag_89\n      tag_47\n      jump\t// in\n    tag_89:\n        /* \"#utility.yul\":1690:1809   */\n    tag_88:\n        /* \"#utility.yul\":1848:1849   */\n      0x00\n        /* \"#utility.yul\":1873:1934   */\n      tag_90\n        /* \"#utility.yul\":1926:1933   */\n      dup6\n        /* \"#utility.yul\":1917:1923   */\n      dup3\n        /* \"#utility.yul\":1906:1915   */\n      dup7\n        /* \"#utility.yul\":1902:1924   */\n      add\n        /* \"#utility.yul\":1873:1934   */\n      tag_52\n      jump\t// in\n    tag_90:\n        /* \"#utility.yul\":1863:1934   */\n      swap3\n      pop\n        /* \"#utility.yul\":1819:1944   */\n      pop\n        /* \"#utility.yul\":1983:1985   */\n      0x20\n        /* \"#utility.yul\":2009:2062   */\n      tag_91\n        /* \"#utility.yul\":2054:2061   */\n      dup6\n        /* \"#utility.yul\":2045:2051   */\n      dup3\n        /* \"#utility.yul\":2034:2043   */\n      dup7\n        /* \"#utility.yul\":2030:2052   */\n      add\n        /* \"#utility.yul\":2009:2062   */\n      tag_54\n      jump\t// in\n    tag_91:\n        /* \"#utility.yul\":1999:2062   */\n      swap2\n      pop\n        /* \"#utility.yul\":1954:2072   */\n      pop\n        /* \"#utility.yul\":1589:2079   */\n      swap3\n      pop\n      swap3\n      swap1\n      pop\n      jump\t// out\n        /* \"#utility.yul\":2085:2414   */\n    tag_19:\n        /* \"#utility.yul\":2144:2150   */\n      0x00\n        /* \"#utility.yul\":2193:2195   */\n      0x20\n        /* \"#utility.yul\":2181:2190   */\n      dup3\n        /* \"#utility.yul\":2172:2179   */\n      dup5\n        /* \"#utility.yul\":2168:2191   */\n      sub\n        /* \"#utility.yul\":2164:2196   */\n      slt\n        /* \"#utility.yul\":2161:2280   */\n      iszero\n      tag_93\n      jumpi\n        /* \"#utility.yul\":2199:2278   */\n      tag_94\n      tag_47\n      jump\t// in\n    tag_94:\n        /* \"#utility.yul\":2161:2280   */\n    tag_93:\n        /* \"#utility.yul\":2319:2320   */\n      0x00\n        /* \"#utility.yul\":2344:2397   */\n      tag_95\n        /* \"#utility.yul\":2389:2396   */\n      dup5\n        /* \"#utility.yul\":2380:2386   */\n      dup3\n        /* \"#utility.yul\":2369:2378   */\n      dup6\n        /* \"#utility.yul\":2365:2387   */\n      add\n        /* \"#utility.yul\":2344:2397   */\n      tag_54\n      jump\t// in\n    tag_95:\n        /* \"#utility.yul\":2334:2397   */\n      swap2\n      pop\n        /* \"#utility.yul\":2290:2407   */\n      pop\n        /* \"#utility.yul\":2085:2414   */\n      swap3\n      swap2\n      pop\n      pop\n      jump\t// out\n        /* \"#utility.yul\":2420:2589   */\n    tag_55:\n        /* \"#utility.yul\":2504:2515   */\n      0x00\n        /* \"#utility.yul\":2538:2544   */\n      dup3\n        /* \"#utility.yul\":2533:2536   */\n      dup3\n        /* \"#utility.yul\":2526:2545   */\n      mstore\n        /* \"#utility.yul\":2578:2582   */\n      0x20\n        /* \"#utility.yul\":2573:2576   */\n      dup3\n        /* \"#utility.yul\":2569:2583   */\n      add\n        /* \"#utility.yul\":2554:2583   */\n      swap1\n      pop\n        /* \"#utility.yul\":2420:2589   */\n      swap3\n      swap2\n      pop\n      pop\n      jump\t// out\n        /* \"#utility.yul\":2595:2754   */\n    tag_56:\n        /* \"#utility.yul\":2735:2746   */\n      0x6e6f74206f776e65720000000000000000000000000000000000000000000000\n        /* \"#utility.yul\":2731:2732   */\n      0x00\n        /* \"#utility.yul\":2723:2729   */\n      dup3\n        /* \"#utility.yul\":2719:2733   */\n      add\n        /* \"#utility.yul\":2712:2747   */\n      mstore\n        /* \"#utility.yul\":2595:2754   */\n      pop\n      jump\t// out\n        /* \"#utility.yul\":2760:3125   */\n    tag_57:\n        /* \"#utility.yul\":2902:2905   */\n      0x00\n        /* \"#utility.yul\":2923:2989   */\n      tag_99\n        /* \"#utility.yul\":2987:2988   */\n      0x09\n        /* \"#utility.yul\":2982:2985   */\n      dup4\n        /* \"#utility.yul\":2923:2989   */\n      tag_55\n      jump\t// in\n    tag_99:\n        /* \"#utility.yul\":2916:2989   */\n      swap2\n      pop\n        /* \"#utility.yul\":2998:3091   */\n      tag_100\n        /* \"#utility.yul\":3087:3090   */\n      dup3\n        /* \"#utility.yul\":2998:3091   */\n      tag_56\n      jump\t// in\n    tag_100:\n        /* \"#utility.yul\":3116:3118   */\n      0x20\n        /* \"#utility.yul\":3111:3114   */\n      dup3\n        /* \"#utility.yul\":3107:3119   */\n      add\n        /* \"#utility.yul\":3100:3119   */\n      swap1\n      pop\n        /* \"#utility.yul\":2760:3125   */\n      swap2\n      swap1\n      pop\n      jump\t// out\n        /* \"#utility.yul\":3131:3550   */\n    tag_27:\n        /* \"#utility.yul\":3297:3301   */\n      0x00\n        /* \"#utility.yul\":3335:3337   */\n      0x20\n        /* \"#utility.yul\":3324:3333   */\n      dup3\n        /* \"#utility.yul\":3320:3338   */\n      add\n        /* \"#utility.yul\":3312:3338   */\n      swap1\n      pop\n        /* \"#utility.yul\":3384:3393   */\n      dup2\n        /* \"#utility.yul\":3378:3382   */\n      dup2\n        /* \"#utility.yul\":3374:3394   */\n      sub\n        /* \"#utility.yul\":3370:3371   */\n      0x00\n        /* \"#utility.yul\":3359:3368   */\n      dup4\n        /* \"#utility.yul\":3355:3372   */\n      add\n        /* \"#utility.yul\":3348:3395   */\n      mstore\n        /* \"#utility.yul\":3412:3543   */\n      tag_102\n        /* \"#utility.yul\":3538:3542   */\n      dup2\n        /* \"#utility.yul\":3412:3543   */\n      tag_57\n      jump\t// in\n    tag_102:\n        /* \"#utility.yul\":3404:3543   */\n      swap1\n      pop\n        /* \"#utility.yul\":3131:3550   */\n      swap2\n      swap1\n      pop\n      jump\t// out\n        /* \"#utility.yul\":3556:3616   */\n    tag_58:\n        /* \"#utility.yul\":3584:3587   */\n      0x00\n        /* \"#utility.yul\":3605:3610   */\n      dup2\n        /* \"#utility.yul\":3598:3610   */\n      swap1\n      pop\n        /* \"#utility.yul\":3556:3616   */\n      swap2\n      swap1\n      pop\n      jump\t// out\n        /* \"#utility.yul\":3622:3764   */\n    tag_59:\n        /* \"#utility.yul\":3672:3681   */\n      0x00\n        /* \"#utility.yul\":3705:3758   */\n      tag_105\n        /* \"#utility.yul\":3723:3757   */\n      tag_106\n        /* \"#utility.yul\":3732:3756   */\n      tag_107\n        /* \"#utility.yul\":3750:3755   */\n      dup5\n        /* \"#utility.yul\":3732:3756   */\n      tag_49\n      jump\t// in\n    tag_107:\n        /* \"#utility.yul\":3723:3757   */\n      tag_58\n      jump\t// in\n    tag_106:\n        /* \"#utility.yul\":3705:3758   */\n      tag_49\n      jump\t// in\n    tag_105:\n        /* \"#utility.yul\":3692:3758   */\n      swap1\n      pop\n        /* \"#utility.yul\":3622:3764   */\n      swap2\n      swap1\n      pop\n      jump\t// out\n        /* \"#utility.yul\":3770:3896   */\n    tag_60:\n        /* \"#utility.yul\":3820:3829   */\n      0x00\n        /* \"#utility.yul\":3853:3890   */\n      tag_109\n        /* \"#utility.yul\":3884:3889   */\n      dup3\n        /* \"#utility.yul\":3853:3890   */\n      tag_59\n      jump\t// in\n    tag_109:\n        /* \"#utility.yul\":3840:3890   */\n      swap1\n      pop\n        /* \"#utility.yul\":3770:3896   */\n      swap2\n      swap1\n      pop\n      jump\t// out\n        /* \"#utility.yul\":3902:4036   */\n    tag_61:\n        /* \"#utility.yul\":3960:3969   */\n      0x00\n        /* \"#utility.yul\":3993:4030   */\n      tag_111\n        /* \"#utility.yul\":4024:4029   */\n      dup3\n        /* \"#utility.yul\":3993:4030   */\n      tag_60\n      jump\t// in\n    tag_111:\n        /* \"#utility.yul\":3980:4030   */\n      swap1\n      pop\n        /* \"#utility.yul\":3902:4036   */\n      swap2\n      swap1\n      pop\n      jump\t// out\n        /* \"#utility.yul\":4042:4189   */\n    tag_62:\n        /* \"#utility.yul\":4137:4182   */\n      tag_113\n        /* \"#utility.yul\":4176:4181   */\n      dup2\n        /* \"#utility.yul\":4137:4182   */\n      tag_61\n      jump\t// in\n    tag_113:\n        /* \"#utility.yul\":4132:4135   */\n      dup3\n        /* \"#utility.yul\":4125:4183   */\n      mstore\n        /* \"#utility.yul\":4042:4189   */\n      pop\n      pop\n      jump\t// out\n        /* \"#utility.yul\":4195:4653   */\n    tag_32:\n        /* \"#utility.yul\":4352:4356   */\n      0x00\n        /* \"#utility.yul\":4390:4392   */\n      0x60\n        /* \"#utility.yul\":4379:4388   */\n      dup3\n        /* \"#utility.yul\":4375:4393   */\n      add\n        /* \"#utility.yul\":4367:4393   */\n      swap1\n      pop\n        /* \"#utility.yul\":4403:4482   */\n      tag_115\n        /* \"#utility.yul\":4479:4480   */\n      0x00\n        /* \"#utility.yul\":4468:4477   */\n      dup4\n        /* \"#utility.yul\":4464:4481   */\n      add\n        /* \"#utility.yul\":4455:4461   */\n      dup7\n        /* \"#utility.yul\":4403:4482   */\n      tag_62\n      jump\t// in\n    tag_115:\n        /* \"#utility.yul\":4492:4564   */\n      tag_116\n        /* \"#utility.yul\":4560:4562   */\n      0x20\n        /* \"#utility.yul\":4549:4558   */\n      dup4\n        /* \"#utility.yul\":4545:4563   */\n      add\n        /* \"#utility.yul\":4536:4542   */\n      dup6\n        /* \"#utility.yul\":4492:4564   */\n      tag_45\n      jump\t// in\n    tag_116:\n        /* \"#utility.yul\":4574:4646   */\n      tag_117\n        /* \"#utility.yul\":4642:4644   */\n      0x40\n        /* \"#utility.yul\":4631:4640   */\n      dup4\n        /* \"#utility.yul\":4627:4645   */\n      add\n        /* \"#utility.yul\":4618:4624   */\n      dup5\n        /* \"#utility.yul\":4574:4646   */\n      tag_45\n      jump\t// in\n    tag_117:\n        /* \"#utility.yul\":4195:4653   */\n      swap5\n      swap4\n      pop\n      pop\n      pop\n      pop\n      jump\t// out\n        /* \"#utility.yul\":4659:4991   */\n    tag_40:\n        /* \"#utility.yul\":4780:4784   */\n      0x00\n        /* \"#utility.yul\":4818:4820   */\n      0x40\n        /* \"#utility.yul\":4807:4816   */\n      dup3\n        /* \"#utility.yul\":4803:4821   */\n      add\n        /* \"#utility.yul\":4795:4821   */\n      swap1\n      pop\n        /* \"#utility.yul\":4831:4902   */\n      tag_119\n        /* \"#utility.yul\":4899:4900   */\n      0x00\n        /* \"#utility.yul\":4888:4897   */\n      dup4\n        /* \"#utility.yul\":4884:4901   */\n      add\n        /* \"#utility.yul\":4875:4881   */\n      dup6\n        /* \"#utility.yul\":4831:4902   */\n      tag_45\n      jump\t// in\n    tag_119:\n        /* \"#utility.yul\":4912:4984   */\n      tag_120\n        /* \"#utility.yul\":4980:4982   */\n      0x20\n        /* \"#utility.yul\":4969:4978   */\n      dup4\n        /* \"#utility.yul\":4965:4983   */\n      add\n        /* \"#utility.yul\":4956:4962   */\n      dup5\n        /* \"#utility.yul\":4912:4984   */\n      tag_45\n      jump\t// in\n    tag_120:\n        /* \"#utility.yul\":4659:4991   */\n      swap4\n      swap3\n      pop\n      pop\n      pop\n      jump\t// out\n        /* \"#utility.yul\":4997:5093   */\n    tag_63:\n        /* \"#utility.yul\":5034:5041   */\n      0x00\n        /* \"#utility.yul\":5063:5087   */\n      tag_122\n        /* \"#utility.yul\":5081:5086   */\n      dup3\n        /* \"#utility.yul\":5063:5087   */\n      tag_49\n      jump\t// in\n    tag_122:\n        /* \"#utility.yul\":5052:5087   */\n      swap1\n      pop\n        /* \"#utility.yul\":4997:5093   */\n      swap2\n      swap1\n      pop\n      jump\t// out\n        /* \"#utility.yul\":5099:5217   */\n    tag_64:\n        /* \"#utility.yul\":5186:5210   */\n      tag_124\n        /* \"#utility.yul\":5204:5209   */\n      dup2\n        /* \"#utility.yul\":5186:5210   */\n      tag_63\n      jump\t// in\n    tag_124:\n        /* \"#utility.yul\":5181:5184   */\n      dup3\n        /* \"#utility.yul\":5174:5211   */\n      mstore\n        /* \"#utility.yul\":5099:5217   */\n      pop\n      pop\n      jump\t// out\n        /* \"#utility.yul\":5223:5665   */\n    tag_43:\n        /* \"#utility.yul\":5372:5376   */\n      0x00\n        /* \"#utility.yul\":5410:5412   */\n      0x60\n        /* \"#utility.yul\":5399:5408   */\n      dup3\n        /* \"#utility.yul\":5395:5413   */\n      add\n        /* \"#utility.yul\":5387:5413   */\n      swap1\n      pop\n        /* \"#utility.yul\":5423:5494   */\n      tag_126\n        /* \"#utility.yul\":5491:5492   */\n      0x00\n        /* \"#utility.yul\":5480:5489   */\n      dup4\n        /* \"#utility.yul\":5476:5493   */\n      add\n        /* \"#utility.yul\":5467:5473   */\n      dup7\n        /* \"#utility.yul\":5423:5494   */\n      tag_64\n      jump\t// in\n    tag_126:\n        /* \"#utility.yul\":5504:5576   */\n      tag_127\n        /* \"#utility.yul\":5572:5574   */\n      0x20\n        /* \"#utility.yul\":5561:5570   */\n      dup4\n        /* \"#utility.yul\":5557:5575   */\n      add\n        /* \"#utility.yul\":5548:5554   */\n      dup6\n        /* \"#utility.yul\":5504:5576   */\n      tag_45\n      jump\t// in\n    tag_127:\n        /* \"#utility.yul\":5586:5658   */\n      tag_128\n        /* \"#utility.yul\":5654:5656   */\n      0x40\n        /* \"#utility.yul\":5643:5652   */\n      dup4\n        /* \"#utility.yul\":5639:5657   */\n      add\n        /* \"#utility.yul\":5630:5636   */\n      dup5\n        /* \"#utility.yul\":5586:5658   */\n      tag_45\n      jump\t// in\n    tag_128:\n        /* \"#utility.yul\":5223:5665   */\n      swap5\n      swap4\n      pop\n      pop\n      pop\n      pop\n      jump\t// out\n\n    auxdata: 0xa264697066735822122096453e6dc943110ffef7915b03112c21067deb7de76effbddc92d78a670583af64736f6c63430008090033\n}\n",
				"bytecode": {
					"linkReferences": {},
					"object": "6080604052336000806101000a81548173ffffffffffffffffffffffffffffffffffffffff021916908373ffffffffffffffffffffffffffffffffffffffff16021790555061064f806100536000396000f3fe60806040526004361061003f5760003560e01c806312065fe014610044578063232f40341461006f5780632e1a7d4d14610098578063d0e30db0146100c1575b600080fd5b34801561005057600080fd5b506100596100cb565b604051610066919061036e565b60405180910390f35b34801561007b57600080fd5b5061009660048036038101906100919190610418565b6100d3565b005b3480156100a457600080fd5b506100bf60048036038101906100ba9190610458565b6101e7565b005b6100c9610318565b005b600047905090565b60008054906101000a900473ffffffffffffffffffffffffffffffffffffffff1673ffffffffffffffffffffffffffffffffffffffff163373ffffffffffffffffffffffffffffffffffffffff1614610161576040517f08c379a0000000000000000000000000000000000000000000000000000000008152600401610158906104e2565b60405180910390fd5b8173ffffffffffffffffffffffffffffffffffffffff166108fc829081150290604051600060405180830381858888f193505050501580156101a7573d6000803e3d6000fd5b507f7fa9aafeb8bb803d77de5d84bc2f2edbd842ca91b20cd5020aa21dfe26ab0be98282476040516101db93929190610561565b60405180910390a15050565b60008054906101000a900473ffffffffffffffffffffffffffffffffffffffff1673ffffffffffffffffffffffffffffffffffffffff163373ffffffffffffffffffffffffffffffffffffffff1614610275576040517f08c379a000000000000000000000000000000000000000000000000000000000815260040161026c906104e2565b60405180910390fd5b60008054906101000a900473ffffffffffffffffffffffffffffffffffffffff1673ffffffffffffffffffffffffffffffffffffffff166108fc829081150290604051600060405180830381858888f193505050501580156102db573d6000803e3d6000fd5b507f56ca301a9219608c91e7bcee90e083c19671d2cdcc96752c7af291cee5f9c8c8814760405161030d929190610598565b60405180910390a150565b7f90890809c654f11d6e72a28fa60149770a0d11ec6c92319d6ceb2bb0a4ea1a1533344760405161034b939291906105e2565b60405180910390a1565b6000819050919050565b61036881610355565b82525050565b6000602082019050610383600083018461035f565b92915050565b600080fd5b600073ffffffffffffffffffffffffffffffffffffffff82169050919050565b60006103b98261038e565b9050919050565b6103c9816103ae565b81146103d457600080fd5b50565b6000813590506103e6816103c0565b92915050565b6103f581610355565b811461040057600080fd5b50565b600081359050610412816103ec565b92915050565b6000806040838503121561042f5761042e610389565b5b600061043d858286016103d7565b925050602061044e85828601610403565b9150509250929050565b60006020828403121561046e5761046d610389565b5b600061047c84828501610403565b91505092915050565b600082825260208201905092915050565b7f6e6f74206f776e65720000000000000000000000000000000000000000000000600082015250565b60006104cc600983610485565b91506104d782610496565b602082019050919050565b600060208201905081810360008301526104fb816104bf565b9050919050565b6000819050919050565b600061052761052261051d8461038e565b610502565b61038e565b9050919050565b60006105398261050c565b9050919050565b600061054b8261052e565b9050919050565b61055b81610540565b82525050565b60006060820190506105766000830186610552565b610583602083018561035f565b610590604083018461035f565b949350505050565b60006040820190506105ad600083018561035f565b6105ba602083018461035f565b9392505050565b60006105cc8261038e565b9050919050565b6105dc816105c1565b82525050565b60006060820190506105f760008301866105d3565b610604602083018561035f565b610611604083018461035f565b94935050505056fea264697066735822122096453e6dc943110ffef7915b03112c21067deb7de76effbddc92d78a670583af64736f6c63430008090033",
					"opcodes": "PUSH1 0x80 PUSH1 0x40 MSTORE CALLER PUSH1 0x0 DUP1 PUSH2 0x100 EXP DUP2 SLOAD DUP2 PUSH20 0xFFFFFFFFFFFFFFFFFFFFFFFFFFFFFFFFFFFFFFFF MUL NOT AND SWAP1 DUP4 PUSH20 0xFFFFFFFFFFFFFFFFFFFFFFFFFFFFFFFFFFFFFFFF AND MUL OR SWAP1 SSTORE POP PUSH2 0x64F DUP1 PUSH2 0x53 PUSH1 0x0 CODECOPY PUSH1 0x0 RETURN INVALID PUSH1 0x80 PUSH1 0x40 MSTORE PUSH1 0x4 CALLDATASIZE LT PUSH2 0x3F JUMPI PUSH1 0x0 CALLDATALOAD PUSH1 0xE0 SHR DUP1 PUSH4 0x12065FE0 EQ PUSH2 0x44 JUMPI DUP1 PUSH4 0x232F4034 EQ PUSH2 0x6F JUMPI DUP1 PUSH4 0x2E1A7D4D EQ PUSH2 0x98 JUMPI DUP1 PUSH4 0xD0E30DB0 EQ PUSH2 0xC1 JUMPI JUMPDEST PUSH1 0x0 DUP1 REVERT JUMPDEST CALLVALUE DUP1 ISZERO PUSH2 0x50 JUMPI PUSH1 0x0 DUP1 REVERT JUMPDEST POP PUSH2 0x59 PUSH2 0xCB JUMP JUMPDEST PUSH1 0x40 MLOAD PUSH2 0x66 SWAP2 SWAP1 PUSH2 0x36E JUMP JUMPDEST PUSH1 0x40 MLOAD DUP1 SWAP2 SUB SWAP1 RETURN JUMPDEST CALLVALUE DUP1 ISZERO PUSH2 0x7B JUMPI PUSH1 0x0 DUP1 REVERT JUMPDEST POP PUSH2 0x96 PUSH1 0x4 DUP1 CALLDATASIZE SUB DUP2 ADD SWAP1 PUSH2 0x91 SWAP2 SWAP1 PUSH2 0x418 JUMP JUMPDEST PUSH2 0xD3 JUMP JUMPDEST STOP JUMPDEST CALLVALUE DUP1 ISZERO PUSH2 0xA4 JUMPI PUSH1 0x0 DUP1 REVERT JUMPDEST POP PUSH2 0xBF PUSH1 0x4 DUP1 CALLDATASIZE SUB DUP2 ADD SWAP1 PUSH2 0xBA SWAP2 SWAP1 PUSH2 0x458 JUMP JUMPDEST PUSH2 0x1E7 JUMP JUMPDEST STOP JUMPDEST PUSH2 0xC9 PUSH2 0x318 JUMP JUMPDEST STOP JUMPDEST PUSH1 0x0 SELFBALANCE SWAP1 POP SWAP1 JUMP JUMPDEST PUSH1 0x0 DUP1 SLOAD SWAP1 PUSH2 0x100 EXP SWAP1 DIV PUSH20 0xFFFFFFFFFFFFFFFFFFFFFFFFFFFFFFFFFFFFFFFF AND PUSH20 0xFFFFFFFFFFFFFFFFFFFFFFFFFFFFFFFFFFFFFFFF AND CALLER PUSH20 0xFFFFFFFFFFFFFFFFFFFFFFFFFFFFFFFFFFFFFFFF AND EQ PUSH2 0x161 JUMPI PUSH1 0x40 MLOAD PUSH32 0x8C379A000000000000000000000000000000000000000000000000000000000 DUP2 MSTORE PUSH1 0x4 ADD PUSH2 0x158 SWAP1 PUSH2 0x4E2 JUMP JUMPDEST PUSH1 0x40 MLOAD DUP1 SWAP2 SUB SWAP1 REVERT JUMPDEST DUP2 PUSH20 0xFFFFFFFFFFFFFFFFFFFFFFFFFFFFFFFFFFFFFFFF AND PUSH2 0x8FC DUP3 SWAP1 DUP2 ISZERO MUL SWAP1 PUSH1 0x40 MLOAD PUSH1 0x0 PUSH1 0x40 MLOAD DUP1 DUP4 SUB DUP2 DUP6 DUP9 DUP9 CALL SWAP4 POP POP POP POP ISZERO DUP1 ISZERO PUSH2 0x1A7 JUMPI RETURNDATASIZE PUSH1 0x0 DUP1 RETURNDATACOPY RETURNDATASIZE PUSH1 0x0 REVERT JUMPDEST POP PUSH32 0x7FA9AAFEB8BB803D77DE5D84BC2F2EDBD842CA91B20CD5020AA21DFE26AB0BE9 DUP3 DUP3 SELFBALANCE PUSH1 0x40 MLOAD PUSH2 0x1DB SWAP4 SWAP3 SWAP2 SWAP1 PUSH2 0x561 JUMP JUMPDEST PUSH1 0x40 MLOAD DUP1 SWAP2 SUB SWAP1 LOG1 POP POP JUMP JUMPDEST PUSH1 0x0 DUP1 SLOAD SWAP1 PUSH2 0x100 EXP SWAP1 DIV PUSH20 0xFFFFFFFFFFFFFFFFFFFFFFFFFFFFFFFFFFFFFFFF AND PUSH20 0xFFFFFFFFFFFFFFFFFFFFFFFFFFFFFFFFFFFFFFFF AND CALLER PUSH20 0xFFFFFFFFFFFFFFFFFFFFFFFFFFFFFFFFFFFFFFFF AND EQ PUSH2 0x275 JUMPI PUSH1 0x40 MLOAD PUSH32 0x8C379A000000000000000000000000000000000000000000000000000000000 DUP2 MSTORE PUSH1 0x4 ADD PUSH2 0x26C SWAP1 PUSH2 0x4E2 JUMP JUMPDEST PUSH1 0x40 MLOAD DUP1 SWAP2 SUB SWAP1 REVERT JUMPDEST PUSH1 0x0 DUP1 SLOAD SWAP1 PUSH2 0x100 EXP SWAP1 DIV PUSH20 0xFFFFFFFFFFFFFFFFFFFFFFFFFFFFFFFFFFFFFFFF AND PUSH20 0xFFFFFFFFFFFFFFFFFFFFFFFFFFFFFFFFFFFFFFFF AND PUSH2 0x8FC DUP3 SWAP1 DUP2 ISZERO MUL SWAP1 PUSH1 0x40 MLOAD PUSH1 0x0 PUSH1 0x40 MLOAD DUP1 DUP4 SUB DUP2 DUP6 DUP9 DUP9 CALL SWAP4 POP POP POP POP ISZERO DUP1 ISZERO PUSH2 0x2DB JUMPI RETURNDATASIZE PUSH1 0x0 DUP1 RETURNDATACOPY RETURNDATASIZE PUSH1 0x0 REVERT JUMPDEST POP PUSH32 0x56CA301A9219608C91E7BCEE90E083C19671D2CDCC96752C7AF291CEE5F9C8C8 DUP2 SELFBALANCE PUSH1 0x40 MLOAD PUSH2 0x30D SWAP3 SWAP2 SWAP1 PUSH2 0x598 JUMP JUMPDEST PUSH1 0x40 MLOAD DUP1 SWAP2 SUB SWAP1 LOG1 POP JUMP JUMPDEST PUSH32 0x90890809C654F11D6E72A28FA60149770A0D11EC6C92319D6CEB2BB0A4EA1A15 CALLER CALLVALUE SELFBALANCE PUSH1 0x40 MLOAD PUSH2 0x34B SWAP4 SWAP3 SWAP2 SWAP1 PUSH2 0x5E2 JUMP JUMPDEST PUSH1 0x40 MLOAD DUP1 SWAP2 SUB SWAP1 LOG1 JUMP JUMPDEST PUSH1 0x0 DUP2 SWAP1 POP SWAP2 SWAP1 POP JUMP JUMPDEST PUSH2 0x368 DUP2 PUSH2 0x355 JUMP JUMPDEST DUP3 MSTORE POP POP JUMP JUMPDEST PUSH1 0x0 PUSH1 0x20 DUP3 ADD SWAP1 POP PUSH2 0x383 PUSH1 0x0 DUP4 ADD DUP5 PUSH2 0x35F JUMP JUMPDEST SWAP3 SWAP2 POP POP JUMP JUMPDEST PUSH1 0x0 DUP1 REVERT JUMPDEST PUSH1 0x0 PUSH20 0xFFFFFFFFFFFFFFFFFFFFFFFFFFFFFFFFFFFFFFFF DUP3 AND SWAP1 POP SWAP2 SWAP1 POP JUMP JUMPDEST PUSH1 0x0 PUSH2 0x3B9 DUP3 PUSH2 0x38E JUMP JUMPDEST SWAP1 POP SWAP2 SWAP1 POP JUMP JUMPDEST PUSH2 0x3C9 DUP2 PUSH2 0x3AE JUMP JUMPDEST DUP2 EQ PUSH2 0x3D4 JUMPI PUSH1 0x0 DUP1 REVERT JUMPDEST POP JUMP JUMPDEST PUSH1 0x0 DUP2 CALLDATALOAD SWAP1 POP PUSH2 0x3E6 DUP2 PUSH2 0x3C0 JUMP JUMPDEST SWAP3 SWAP2 POP POP JUMP JUMPDEST PUSH2 0x3F5 DUP2 PUSH2 0x355 JUMP JUMPDEST DUP2 EQ PUSH2 0x400 JUMPI PUSH1 0x0 DUP1 REVERT JUMPDEST POP JUMP JUMPDEST PUSH1 0x0 DUP2 CALLDATALOAD SWAP1 POP PUSH2 0x412 DUP2 PUSH2 0x3EC JUMP JUMPDEST SWAP3 SWAP2 POP POP JUMP JUMPDEST PUSH1 0x0 DUP1 PUSH1 0x40 DUP4 DUP6 SUB SLT ISZERO PUSH2 0x42F JUMPI PUSH2 0x42E PUSH2 0x389 JUMP JUMPDEST JUMPDEST PUSH1 0x0 PUSH2 0x43D DUP6 DUP3 DUP7 ADD PUSH2 0x3D7 JUMP JUMPDEST SWAP3 POP POP PUSH1 0x20 PUSH2 0x44E DUP6 DUP3 DUP7 ADD PUSH2 0x403 JUMP JUMPDEST SWAP2 POP POP SWAP3 POP SWAP3 SWAP1 POP JUMP JUMPDEST PUSH1 0x0 PUSH1 0x20 DUP3 DUP5 SUB SLT ISZERO PUSH2 0x46E JUMPI PUSH2 0x46D PUSH2 0x389 JUMP JUMPDEST JUMPDEST PUSH1 0x0 PUSH2 0x47C DUP5 DUP3 DUP6 ADD PUSH2 0x403 JUMP JUMPDEST SWAP2 POP POP SWAP3 SWAP2 POP POP JUMP JUMPDEST PUSH1 0x0 DUP3 DUP3 MSTORE PUSH1 0x20 DUP3 ADD SWAP1 POP SWAP3 SWAP2 POP POP JUMP JUMPDEST PUSH32 0x6E6F74206F776E65720000000000000000000000000000000000000000000000 PUSH1 0x0 DUP3 ADD MSTORE POP JUMP JUMPDEST PUSH1 0x0 PUSH2 0x4CC PUSH1 0x9 DUP4 PUSH2 0x485 JUMP JUMPDEST SWAP2 POP PUSH2 0x4D7 DUP3 PUSH2 0x496 JUMP JUMPDEST PUSH1 0x20 DUP3 ADD SWAP1 POP SWAP2 SWAP1 POP JUMP JUMPDEST PUSH1 0x0 PUSH1 0x20 DUP3 ADD SWAP1 POP DUP2 DUP2 SUB PUSH1 0x0 DUP4 ADD MSTORE PUSH2 0x4FB DUP2 PUSH2 0x4BF JUMP JUMPDEST SWAP1 POP SWAP2 SWAP1 POP JUMP JUMPDEST PUSH1 0x0 DUP2 SWAP1 POP SWAP2 SWAP1 POP JUMP JUMPDEST PUSH1 0x0 PUSH2 0x527 PUSH2 0x522 PUSH2 0x51D DUP5 PUSH2 0x38E JUMP JUMPDEST PUSH2 0x502 JUMP JUMPDEST PUSH2 0x38E JUMP JUMPDEST SWAP1 POP SWAP2 SWAP1 POP JUMP JUMPDEST PUSH1 0x0 PUSH2 0x539 DUP3 PUSH2 0x50C JUMP JUMPDEST SWAP1 POP SWAP2 SWAP1 POP JUMP JUMPDEST PUSH1 0x0 PUSH2 0x54B DUP3 PUSH2 0x52E JUMP JUMPDEST SWAP1 POP SWAP2 SWAP1 POP JUMP JUMPDEST PUSH2 0x55B DUP2 PUSH2 0x540 JUMP JUMPDEST DUP3 MSTORE POP POP JUMP JUMPDEST PUSH1 0x0 PUSH1 0x60 DUP3 ADD SWAP1 POP PUSH2 0x576 PUSH1 0x0 DUP4 ADD DUP7 PUSH2 0x552 JUMP JUMPDEST PUSH2 0x583 PUSH1 0x20 DUP4 ADD DUP6 PUSH2 0x35F JUMP JUMPDEST PUSH2 0x590 PUSH1 0x40 DUP4 ADD DUP5 PUSH2 0x35F JUMP JUMPDEST SWAP5 SWAP4 POP POP POP POP JUMP JUMPDEST PUSH1 0x0 PUSH1 0x40 DUP3 ADD SWAP1 POP PUSH2 0x5AD PUSH1 0x0 DUP4 ADD DUP6 PUSH2 0x35F JUMP JUMPDEST PUSH2 0x5BA PUSH1 0x20 DUP4 ADD DUP5 PUSH2 0x35F JUMP JUMPDEST SWAP4 SWAP3 POP POP POP JUMP JUMPDEST PUSH1 0x0 PUSH2 0x5CC DUP3 PUSH2 0x38E JUMP JUMPDEST SWAP1 POP SWAP2 SWAP1 POP JUMP JUMPDEST PUSH2 0x5DC DUP2 PUSH2 0x5C1 JUMP JUMPDEST DUP3 MSTORE POP POP JUMP JUMPDEST PUSH1 0x0 PUSH1 0x60 DUP3 ADD SWAP1 POP PUSH2 0x5F7 PUSH1 0x0 DUP4 ADD DUP7 PUSH2 0x5D3 JUMP JUMPDEST PUSH2 0x604 PUSH1 0x20 DUP4 ADD DUP6 PUSH2 0x35F JUMP JUMPDEST PUSH2 0x611 PUSH1 0x40 DUP4 ADD DUP5 PUSH2 0x35F JUMP JUMPDEST SWAP5 SWAP4 POP POP POP POP JUMP INVALID LOG2 PUSH5 0x6970667358 0x22 SLT KECCAK256 SWAP7 GASLIMIT RETURNDATACOPY PUSH14 0xC943110FFEF7915B03112C21067D 0xEB PUSH30 0xE76EFFBDDC92D78A670583AF64736F6C6343000809003300000000000000 "
				},
				"gasEstimates": {
					"creation": {
						"codeDepositCost": "323000",
						"executionCost": "24604",
						"totalCost": "347604"
					},
					"external": {
						"deposit()": "infinite",
						"getBalance()": "317",
						"transferfunc(address,uint256)": "infinite",
						"withdraw(uint256)": "infinite"
					}
				},
				"methodIdentifiers": {
					"deposit()": "d0e30db0",
					"getBalance()": "12065fe0",
					"transferfunc(address,uint256)": "232f4034",
					"withdraw(uint256)": "2e1a7d4d"
				}
			},
			"storageLayout": {
				"storage": [
					{
						"astId": 3,
						"contract": "Wallet/Wallet.sol:Wallet",
						"label": "owner",
						"offset": 0,
						"slot": "0",
						"type": "t_address_payable"
					}
				],
				"types": {
					"t_address_payable": {
						"encoding": "inplace",
						"label": "address payable",
						"numberOfBytes": "20"
					}
				}
			},
			"userdoc": {
				"kind": "user",
				"methods": {},
				"version": 1
			}
		}
	}
}